:020000040800F2
:1000000000A0002021F4000889F4000889F4000809
:1000100089F4000889F4000889F400080000000051
:1000200000000000000000000000000089F400084B
:1000300089F400080000000089F400083D5B000816
:1000400089F4000889F4000889F4000889F400089C
:1000500089F4000889F4000889F4000889F400088C
:1000600089F400084D5B000889F4000889F4000851
:1000700089F4000889F40008B98E000889F40008A2
:1000800089F4000889F4000889F4000889F400085C
:1000900089F4000889F4000889F4000889F400084C
:1000A00089F4000889F4000889F4000889F400083C
:1000B00089F4000889F4000889F4000889F400082C
:1000C00089F4000889F4000889F4000889F400081C
:1000D00089F40008418200083582000889F400088C
:1000E000515B000889F4000889F4000889F40008CD
:1000F00089F4000889F4000889F4000889F40008EC
:1001000000000000000000000000000089F400086A
:1001100089F4000889F4000889F4000889F40008CB
:1001200089F4000889F4000889F4000889F40008BB
:1001300089F4000889F400080000000000000000B5
:1001400089F4000889F4000889F400080000000020
:10015000000000000000000000000000000000009F
:10016000000000000000000089F4000889F4000885
:1001700089F40008000000000000000000000000FA
:080180000000000089F40008F2
:1001C0002DE9F04FB3B007F0FBFA18B907F062FC65
:1001D0000AF0AEFABF4DC04C07F018FB2B7843F085
:1001E00001032B70BD4B4FF47002C3F8882000232D
:1001F000089309930A93236843F4803323602368A8
:1002000003F400330993089B01330893099B1BB93E
:10021000089BB3F5A04FF2D1236813F4003318BF45
:1002200001230993099B012B40F0778202230A9353
:10023000AB4B12221A606368636063686360636833
:1002400043F480636360636823F47C1363606368D2
:1002500043F4E8136360236843F0807323602368EA
:100260009901FCD5636823F003036360636843F07E
:1002700002036360636803F00C03082BFAD10A9B46
:10028000964F6B60974BFB60636A636ADFF89C82F2
:10029000DFF89CB2DFF89CA243F08073636263696D
:1002A00043F4FC0332AE636103238DF87A3041F6E8
:1002B000FF7326F8503D4FF09040314603F062FA4C
:1002C0004FF6FF7331468848ADF8783003F05AFA9C
:1002D0003146404603F056FA3146844803F052FA5C
:1002E0003146834803F04EFA3146824803F04AFA19
:1002F000304606F0C7FB1E9B7F4AB3FBF2F37F4AF2
:10030000DFF834E213607E4B7E4A4FF0000CC3F8F6
:1003100000C0C3F804C07C4B5A60F02287F8232049
:100320000722C3F808C01A60DBF80830CAF80030AA
:10033000BEE80F0037460FC7BEE80F000FC79EE8A4
:100340000F0087E80F00636943F40023636163696A
:1003500043F400236361636943F4002363616369C9
:1003600043F4003363614FF0904310221A8520223A
:100370001A8540221A854FF40043C8F818304FF40C
:100380008043C8F818304FF40053C8F81830674657
:10039000CDF80CA0391DF0593144083703F0F2F9BB
:1003A000302FF7D1039B594AD3F80090584BDFF810
:1003B0008C811A60574B04221A7000213A4640463D
:1003C00010F0C4FD0127002188F8001088F80C7097
:1003D00088F8181088F824101C2217A810F0B6FD11
:1003E00019F4802F08BF4C4BDFF8FC8008BF1F704A
:1003F0002B784A4FDFF8489143F004032B70484BA9
:100400001F60636943F480236361E36943F400136D
:10041000E361236B23F010032363236B43F010038A
:100420002363D8F8243023F00F03C8F82430D8F819
:10043000243043F00403C8F82430D8F8243023F0E3
:10044000F003C8F82430D8F8243043F04003C8F84B
:10045000243002234FF0000A4FF480728DF87C3074
:10046000049331464FF0030340468DF87D301E92D1
:100470008DF87EA08DF87FA009F0C6FF4FF40072C2
:10048000314640461E9209F0BFFF3A68039B22F0B6
:1004900001023A603968234A0A403A60224A3A61C6
:1004A0003A6842F001023A60C7F808A0C7F80CA009
:1004B000C7F808A0BA6842F40042BA603A683A60E5
:1004C0007A6822F0784222F400427A603A6842F078
:1004D000010237E0700700200010024000ED00E04C
:1004E000002002400005FA0500040048000C004806
:1004F000001000480014004840420F00000D00208A
:10050000A40C00203F19010010E000E0200F0020A3
:10051000581E0020200A00206407002000540040DC
:10052000B00B0020FFE0CF007A25E0000008004873
:10053000A40D0020F8120020A0110108240A0020B8
:100540005C1D00203A601F6810225146484610F09A
:10055000FDFC049B8DF851304FF6FF724FF0030302
:1005600007F0020713928DF852A08DF853A08DF872
:10057000503087B132A9012741F87C7D404609F00F
:1005800043FF0C2389F80030072389F801A089F87C
:10059000033089F802704FF4D87006F063FA63698B
:1005A0005F4843F0805343F00203636106F05AFA58
:1005B000636943F0005343F002036361594C2046E2
:1005C00009F038FE304609F00AFE4FF48072564BAF
:1005D00024924FF480621E932592544B1F93202245
:1005E00000232046269231464FF400522093229356
:1005F000239327922893ADF8847009F0FDFD2368BA
:1006000043F0010323604A4CA36823F04053A360E6
:10061000A36843F08053A3600A2005F021FAA36881
:1006200023F08043A360A368A360A36843F0004362
:10063000A360A368002BFCDBA3683E4ADFF8F080D0
:1006400023F04053A360A36843F00053A360916874
:10065000394B0B4043F468339360E268374B1340E7
:1006600043F40053E360236B013F23F00F031F4368
:1006700027630122002409EB0403997841B1571C38
:10068000FFB2DB7819F80410404609F061FE3A46E3
:100690000434102CEFD1264B9A6842F001029A6084
:1006A0001A68D207FCD5DA6822F00202DA60DA684A
:1006B00042F00202DA60DA6842F00102DA609A6817
:1006C00042F004029A60BBF9E830002B3ED007EEFE
:1006D000903ADFED1B6ABBF9EA301A4AF8EEE77A86
:1006E00007EE103A67EEA67ABBF9EC30CDED1E7A34
:1006F00007EE903AB8EEC77AF8EEE77A002127EED7
:10070000267A67EEA67A117030460F498DED1F7A72
:10071000CDED207A09F030FF20E001230A93AEE509
:100720000036001058040240400400506C1D0020A8
:100730000004005000070050E010FCFF07C0FFFD60
:1007400035FA8E3C8F000020341D0020BBF9EA20D2
:10075000002ABCD1BBF9EC20002AB8D1DFF85883BD
:10076000BBF8F030DFF854A3059300249BF8EF307A
:10077000C8F8004010222146C8F80440C8F80840D4
:10078000BE4804932C729BF8F77010F0DFFBBC4B53
:10079000A5F809402320CAF80040CAF80440CAF866
:1007A00008401C6005F05CF90BAA0121752005F0DA
:1007B0005CFED146F0B1B34BCAF80430B24BCAF874
:1007C00008300FAA4323012120468AF8003005F0A3
:1007D0004CFE9DF83C3003F07E038DF83C30002841
:1007E00000F0F480682B40F0F18001236B721D2330
:1007F0008AF800306A7AA54B06930021042A197002
:1008000040F029879D4BA24AA24C1A60A24A5A6026
:10081000A24ADA602268079142F0010020609A46FD
:100820004FF0010940F2022040F2FD1E049B0A2B0A
:1008300028BF002309FA03F111EA000C40F01187E8
:1008400011EA0E0F00F00D87954B83F800C0954B11
:10085000C8F8003042F00302934BC8F8043022601D
:1008600023689B0702D5D8F800309847DAF80030A3
:100870000598DFF84C8298474FF00009CA4688F87F
:1008800000A01FB1BB1E022B00F2E1803346012203
:1008900000210C208DF8789003F0B4F8002800F0C7
:1008A000D6809DF87830482B40F0D1807F4B804A2D
:1008B0001A60804A5A60062388F80030236843F0A3
:1008C000080323609BF8E4300BB1069A13709BF881
:1008D000E5300BB1724A13709BF8E6300BB188F823
:1008E00000309BF8F830042B00F2B880012404FAA1
:1008F00003F212F0160F64D112F0090F00F0AC8071
:100900000A2005F0ADF813AB2246A021772003F0B2
:1009100079F80746002854D022461E21772003F09C
:10092000F9F805F081F8044605F07EF8001BB0F5F3
:100930002F6FF9D3DFF88C810024A246C146A4F1C1
:10094000600133460222C9B277208DF878A08DF875
:1009500079A003F057F89DF878209DF8793043EAA4
:10096000022324F808300234102CE8D1B8F80E2005
:10097000002302F00F0402F47F42A8F80E2019466B
:10098000481039F81000002818BF0027CE0746BFCE
:10099000C0B2434083EA102308201E0448BF83F4FA
:1009A000C05301384FEA4303F7D101311029E7D191
:1009B0002243A9F80E2027B9C3F303339C4200F069
:1009C0005B862B7A43F020032B724CE09DF82C3091
:1009D00003F07E03682B8DF82C3033D102230621DF
:1009E0006B723246D9F80430084698479DF87D303E
:1009F0009DF87B209B00520002F0020203F00403EA
:100A000013439DF8792002F001021343DAB25BB17F
:100A1000012A02D10023AB72ECE6022A01D10123A4
:100A2000F9E7022005F02BF8D9F8043013AA0121C8
:100A30000C2098479DF84C3013F00F03F1D0042B95
:100A4000EDD1E7E7702B04BF04236B72D2E6012FD0
:100A50007FF638AF002712E7012BB2D00D4A13689A
:100A600043F0040313606B68012B02BF2B7A43F041
:100A700040032B722C7A3CB32046D3E7B0160020FB
:100A80006C0D00206B64000861640008E80400201D
:100A9000B9640008BC090020D963000890C1793D01
:100AA00048050020616500081D64000870130020DF
:100AB000ED3B0008293B00083C0500205C0D0020B0
:100AC00078130020981300202B7843F002032B703A
:100AD000AD4D4FF480432B854FF40043AB6110269E
:100AE000013E15D0AB8A9BB283F48043AB82AB8AC4
:100AF0009BB283F40043AB82AB8A9BB283F4005376
:100B0000AB82192004F0ACFF192004F0A9FFE7E73D
:100B10004FF40043AB614FF48043AB619B4E4FF405
:100B20000053AB613268100705D5994B1B68984795
:100B3000984B01221A70984BDFED986A1B68984D0C
:100B40001A7B984B1A80984B1B8807EE103AB8EE28
:100B5000C77A964BC6EE877A1B22FF2128469FED67
:100B6000947A67EE877AC3ED007A10F0EFF90022ED
:100B70002A7032688F4B012112F0020F197028463B
:100B800004D06970032119700221A970510704D59E
:100B900019784D1C1D700325455412F00A0F40F0C2
:100BA0007C85039A11688A0604D51A78551C1D7035
:100BB000072585549BF80560082E01D00E2E04D120
:100BC0001A78551C1D700B2585541A780C278754EC
:100BD000551C4F0748BF0232EDB21D7042BF1A705C
:100BE000102242551A781227551CEDB287544F0532
:100BF0001D7004D59BF8A071002F40F05D858D0518
:100C000004D51A78551C1D7015258554182E0BD146
:100C10001A7816258554551CEDB217274755D51C53
:100C20000232D2B21D708654CA0504D51A78511CFE
:100C300019701A238354982200215F485E4DDFF813
:100C4000A4A110F083F9012004F01CFE4C2758B336
:100C5000012C29DC07FB04F905EB090898F84A6028
:100C600016B10134E4B2F2E7037990F9000001967D
:100C70000AEB8303032200921B6B3246012104F02E
:100C8000A3FD834660B104FB07504C22314610F0AF
:100C90005DF901231C4445F809B088F84A30E4B2F4
:100CA000012004F0CDFDD2E7444B2A681A60444B82
:100CB000444D454A1D60002313809370434A444EBF
:100CC00013605360434ADFF820811468424ADFF81A
:100CD0001CC11560414AE8891370A5F58E75B5F8F9
:100CE0002C21643204F17D010FFA80FE12B2A3F1CF
:100CF0000807FFB2022FD8F8007098BF26F813201B
:100D000007F5167788BF26F813E04CF823700133F7
:100D1000122BECD1324B1F6817F4805F08BFB5F976
:100D200030E1A6F806E09846CD34A1421CD00B78FD
:100D300083B98A78CB789A420CDA6AB1013A02EB2D
:100D4000820202EB820202F561734A7804329BB29E
:100D500026F812300431E8E7013303EB830303EB99
:100D6000830303F56173F0E73B074ED595F8242123
:100D7000062A44D8DFE812F03C0091009400BF003E
:100D8000DA00F500F50000BF00080048BC090020AB
:100D90007013002094130020501400200AE81C4116
:100DA000C10900208C0500204C00002060170020A5
:100DB0000000C842C0090020C4050020AC0C00207F
:100DC00058090020C00E0020001400202414002028
:100DD000FC120020BC130020C4130020DB080020FC
:100DE000F8120020A01101089C14002070090020B6
:100DF00045F2F052794B1A8006F09EF828B9082087
:100E000009F086FC764B774A1A60D8F80020764BBA
:100E100012F4804F04D01221197071497348086090
:100E200042F20100024202F4005140F04B841A7871
:100E30006F4CDFF808B2DFF808A2043A5A7004F0E9
:100E4000F3FD6C4B18606B79052B02BF6A4B4FF4B6
:100E5000C8721A8007F010FD684B4FF47A721A803E
:100E6000674B002222601A6099462368002B40F0ED
:100E7000EF80232704F0D8FD07F08EF80A2004F055
:100E8000EFFD013FF6D107F05BF8DBF8003023609F
:100E9000DAF80030C9F80030E7E742F6F822A9E7AF
:100EA0004E4B42F6F8221A80564A0A23000190FB64
:100EB000F3F00023A0F5B06042F823000133122BB9
:100EC000FAD1474A50491160474A4020137004F054
:100ED000D9FC002893D001234FF0070990F90000B6
:100EE0004A4A8DE808024A4B402104F06DFC00306C
:100EF00018BF012082E7394B42F6F8221A80384B9E
:100F0000444A1A60384B10221A70402004F0BAFC90
:100F100000283FF474AF01234FF0000C90F900005B
:100F20003D4A8DE808104FF4E133DDE72B4B42F6E4
:100F3000F8221A802A4B394A1A602B4B08221A7061
:100F4000402004F09FFC00283FF459AF01234FF0EC
:100F5000000E90F90000324A8DE808404FF4E1336A
:100F6000C2E71E4B2F4F304C3048DFF8D890DFF8E7
:100F7000D8C0DFF8D8E042F6F82119801A4B0C21CE
:100F80001970062A4FF000033B70237003701BD0CA
:100F90001B2389F8003005238CF800108EF80030F0
:100FA0004FF4E1340E4B224A1A60402004F06AFCF0
:100FB00000283FF424AF0123002790F900001D4AC8
:100FC0008DE8880023468FE7212389F800308CF8CC
:100FD00000108EF80020184CE4E700BF5E060020E9
:100FE00080000020659A0008A00D00203D9A0008AE
:100FF0000017002090050020561E002068090020E0
:10100000FC160020341C0020099A0008659C00088A
:10101000A0860100F5990008C19B0008DD99000831
:10102000799B0008C21B0020A51C0020A41C0020E6
:1010300009990008699A000890D0030080140020E4
:101040007C140020A61C0020C11B0020A71C00202F
:101050000023DFF8B4B3DFF8B4A32360C9F800308D
:101060000F270523039304F0DFFC06F095FF0A2009
:1010700004F0F6FC039B013BF4D106F061FF23680A
:10108000DBF80020D9F800101A44DAF800302260AA
:101090000B44013FC9F80030E3D10F2192FBF1F27C
:1010A0002260C54A93FBF1F3C9F80030137843F08E
:1010B00008031370C14A137823F002031370D8F8A1
:1010C000003040F602021A4209D0BD4BBD4A1A60F8
:1010D000BD4B03221A70BD4B1F80BD4B1F80AB68F8
:1010E000BC4CC8F80030BC4BDFF824B301221A70A6
:1010F0002378A14663F07F0309F80C3B4FF4966315
:1011000073819BE80F000BAE86E80F000BF1100314
:101110000FCB0DF13C0E8EE80F000BF120030FCB2F
:101120000DF14C0A8AE80F000BF130030FCB0DF1E3
:10113000780C8CE80F009AE80F0089E80F009CE813
:101140000F0004F11C0989E80F009EE80F0004F16C
:101150002C0C8CE80F0096E80F0004F13C0E8EE892
:101160000F009E4E4FF4967004F07AFC00214FF46D
:101170008C729B480FF0EAFEF36943F00703F361BA
:10118000B36943F4A523B361736943F4C023736166
:1011900004F1100104F1600E4FF00F0910318E457B
:1011A00040F03A816B790E2B40F04F8101238DF88E
:1011B0006C308C4B1A68042F00F050817B1C02EBC2
:1011C000C30111F9061C022940F04681FF00BB1C37
:1011D000D31804D01744BB88003318BF01238DF8FF
:1011E0006130D8F80030C3F340028DF86220C3F3B9
:1011F00080128DF86420C3F340328DF85C20C3F375
:10120000C0328DF85F2013F4006204D095F81821E5
:10121000911E4A424A418DF86020C3F300428DF886
:101220006520C3F3C0028DF85E2000228DF8662091
:10123000C3F300528DF86720B5F8D620ADF86A20C8
:10124000B5F8E220ADF86820C3F3804203F0010056
:1012500003F008018DF86320DB04B5F8E02048BFF7
:10126000B5F8DC30B5F8D470ADF8707048BFADF8A3
:101270007030B2F5FA7FC4BF0023ADF870305A4B1E
:10128000ADF86E2095F868211A700023A4F84C3050
:101290009DF86C308DF85D00002B14BF02220022F7
:1012A00000B901B10132514B03EB82034FF0000B47
:1012B000D3F890309A1E063303920493039A32F8BF
:1012C000023F03924FF6FF72934240F0C980484BB1
:1012D000DFF840E1474F04221A700024E3190FCBD6
:1012E00004EB0E051034402C85E80F00F6D1424B7C
:1012F000D8F800201D68414B41481C6802F4805218
:101300000023002A00F0A481B4F9041020F813107F
:1013100001330C2BF5D1022501248DF87A408DF88C
:101320007B507369374F4FF0100843F48023ADF8BA
:1013300078801EA97361384602F024FAA7F8288045
:101340008DF87A408DF87B5073694FF090484FF0DC
:10135000800943F40033ADF878901EA973614FF013
:10136000904002F00FFAC8F818908DF87A408DF886
:101370007B507369ADF8785043F4802373611EA9E4
:10138000384602F0FFF93D858DF87A408DF87B50A4
:1013900073694FF4004743F40033ADF878701EA929
:1013A0007361404602F0EEF9C8F818701E2004F090
:1013B00057FB33B0BDE8F08F791300209513002060
:1013C000581D0020B20E0020A4050020A605002014
:1013D000A8050020700700206407002000100240CC
:1013E000AC140020581E0020E80A0020A0110108BB
:1013F000060D002040120108341400203014002093
:101400003C1E002000040048801400207C140020B2
:10141000F0110108A406002011F8063C51F8100C48
:1014200011F805CC03F00702DB0800EB8303920000
:10143000186A0CFA02FC09FA02F220EA02021A62A5
:101440001A6A4CEA02021A62A8E603F0EF03082BBC
:101450003FF4ACAE0023AAE61F46ACE60023BEE68E
:101460009DF86220DDB21B0A42B104EB05129F48D1
:101470001169814202D1928A012A51D0022B55D1A1
:101480009DF85C20002A4BD0994F9DF8672007EB10
:10149000051732B19DF86C201AB92A1F032A40F2B1
:1014A000C580012BDAB246D1924BE76504EB0515F6
:1014B0004FF00009FF2283F8442083F8452083F889
:1014C0000090AA8AC3F80490C3F80890C3F80C905F
:1014D000C3F8409083F8469083F847904FF0020A93
:1014E0006B7E286984F850901EA98DF87A30ADF88B
:1014F00078208DF87BA002F045F95246A97DE86876
:1015000002F090F8384605F0EBFC7B4B7B4A2366F3
:101510007B4B6366C4F86890111F384606F032FEB4
:10152000049B039A93427FF4C9AED0E6012BABD162
:101530009DF85D20A6E7022A41D15FFA8BF14FF0BA
:101540001C0A0AFB01FA04EB0A0904EB0515012148
:101550000023A88A89F85010697E89F8523089F8EA
:101560005A3089F851B0ADF878008DF87A102869B2
:10157000C9F85C701EA905938DF87B2002F002F972
:10158000059BA97DE8681A4602F04CF8384605F03C
:10159000A7FC5C4AC9F860205B495C4AC9F8642032
:1015A000059BC9F868300AF114020AF1100A0A44CE
:1015B0003846514406F0E6FD0BF1010BB0E7032A73
:1015C00031D19DF86330524D63B194F84D900023B2
:1015D0004FF6FF720821384602F0FEF84D4B45F8F1
:1015E000290013E0BDF86E2094F84D90BDF87030DE
:1015F000B2F5FA7F11DD4849B1FBF2F2384692B2FA
:10160000482102F0E9F8454B45F82900C36094F8F9
:101610004D30013384F84D3082E74149B1FBF2F29D
:10162000012192B2D7E7042A7FF47AAFBDF868307F
:101630003B4A92FBF3F20121BDF86A3092B2384680
:1016400002F0CAF894F84C30013384F84C3067E764
:10165000B5F904105AE62B7A43F002032B72FFF718
:1016600040B90021012B04913FF6E0A82D4B9DF8D5
:101670001C201A70FFF7F4B82B4B42F210721A803C
:101680005A802A4A5A602A4A9A602A4ADA602A4AC2
:101690001A612A4A5A61FFF7E1B91A780421815484
:1016A000511CC9B205254554D11C0232D2B2197061
:1016B00006218154FFF775BA02321A70132242557F
:1016C000FFF79DBA1E4844F62064048021B108212A
:1016D00019701C491C480860D0077FF5A8AB0C2284
:1016E0001A70184A19491160FFF7A1BB000400489D
:1016F0007C0700206C0A0020E1330008D40700209A
:10170000B93400082D370008C0070020B93300089D
:10171000B80A0020C934000800A24A04DD340008D9
:1017200040420F0048050020841400204377000841
:1017300077770008397700087577000899750008F1
:101740005E06002080000020599A00084D9A00088B
:10175000A9490A682DE9F04F02F59C43A74C2033B4
:101760002360A74B8BB01D780591002D3AD1A54F72
:10177000DFF8A082DFF8CCA297F80090E9B24945E3
:101780000E4680F2A4800729D8BFD8F8003038462A
:10179000D8BF595CDAF800309847032E1DDCD8F822
:1017A000003006F10F0B03EB8B0133F82B204B8835
:1017B00098B1811A4FF47A709B1A484390FBF3F06A
:1017C00040F2EE2300F57A709842B8BF184640F612
:1017D000CA039842A8BF184680B204EB46060135FA
:1017E000B080C9E7884909688A4201D9013D1D7066
:1017F000864B00931A6812F4805F05D0844B1B68F7
:10180000DD0701D409F0FCFB059B1968814B1A68C0
:10181000937A002B00F03481013B7F48127B30F932
:1018200013301AB1C3F53B6308331BB2A3F57A73C7
:10183000B3F57A7FA8BF4FF47A7323EAE37307EE18
:10184000903ADFED766AF8EEE77A87EEA67A744A88
:10185000DFED747A67EE277AFCEEE77A17EE903ABE
:101860001380009BDFF8E0911B6813F4807F00F089
:1018700054816D4B6D4D994203D9AB78002B00F02C
:101880004F87AB78002B00F04881614F95F82160BD
:101890003B6899F800B00297012E03F08063DFF8EF
:1018A00094A1634F01930BF0040B14BF4FF0030896
:1018B0004FF0000895F82010052900F22881DFE894
:1018C00011F01B0193019901BC01D401F1014F4BAF
:1018D0001A68584B029342F20101186800900A40BE
:1018E000039206D094F8293084F82830524B5A7865
:1018F0001A7094F828601EB14F4B1E7886F00106CE
:101900000F2384F82A30434B94F82BA01B680193D3
:101910000323BAFBF3F303EB4303AAEB0303DBB2AA
:101920005B000493009B454FDFF8ECB003F51673A2
:10193000002507F1BC02069307F172084D4542DA13
:10194000690086B137F91500019B9B8A80B29842E5
:10195000C0F2CE86019BDB8A984200F3C986069BC3
:1019600042F8253003E03046EEE73BF80100039BE8
:101970001BB92BF815000135E0E7314B062101FBBF
:10198000053E049B2EF8030094F8743033B9BAF185
:10199000020FEEDD4FF0010384F874304FF00001C8
:1019A00028F815106B0000203EF8101033F808C01E
:1019B00001306144032823F80810F5D10BB293FBE2
:1019C000F0F080B2D5E794F82A300F2B174B3DD1B9
:1019D0000F4A1268560139D4029AD96812689A607F
:1019E000521AC82A02D9012283F8212094F82B30F8
:1019F000013384F82B30FBE65C130020B008002094
:101A00002C1E0020A00D0020281E0020F81200200F
:101A1000840D0020C4130020FC12002000007A4432
:101A2000180A002000C07F44404B4C0000140020E6
:101A3000FC1300209C1400200A000020B4080020A1
:101A4000DC0800208000002095130020B84AB94E21
:101A5000012151701170029A99681268DA60521A65
:101A600059688A4284BF002283F8212000254D4511
:101A7000BCDAE8B208F058FB26F815000135F6E7A5
:101A80000098006800047FF5ECAED4F89000081AC6
:101A90000028FFF6E6AE01F59C402030C4F8900027
:101AA000A548D27A4579A548A54E30F8150080B2F0
:101AB00090FBF2F094F89420013202F00F0284F8C7
:101AC0009420224482F8950018461A46855D01301C
:101AD0002A44102812B2F9D192FBF0F212B2002A75
:101AE00003DB642A1346A8BF642307EE903ADFEDB8
:101AF000956AF8EEE77AA8E6BBF1000F68D0012EF0
:101B000005D0052008F0DCFD8F4B02221A70B8F1D9
:101B1000000F02D0404603F045FF8C4DB5F8DE00C3
:101B200005F0D0FAAA46064618B906F08DFE06F072
:101B30007BFE99F800305B0708D5009B1B68DF0629
:101B400004D5834B1B78DD0640F1F68500239AF817
:101B500072819AF87311BAF82C71BAF82EE17548AF
:101B60001A4630F912509B08BD42C4BF63F07F0390
:101B7000DBB201327545B8BF43F04003042AF0D10F
:101B800094F8B1209A4240F0C18094F8B220F92A2A
:101B900002DC013284F8B2206E4F84F8B1303B7819
:101BA0006D4D002B40F0E9802B68D80740F1DC80B8
:101BB000002E40F0AD8099F80030DA0740F1DD806A
:101BC0005B0702D4012384F8B33009F0CFF9D4E0E5
:101BD000019B4FF4806023B108F08CFD00232B6142
:101BE00095E708F077FDF9E7012E7FF463AE052154
:101BF00000F09EBD012E04BF052185F82010BBF129
:101C0000000F0CD0D4F8A810B1F90E004949088093
:101C10004880888038684088C8804FF00208DAF829
:101C2000000069698142C0F07F85BBF1000F00F0C0
:101C30007B85012E3FF43EAE69E799F8001041F034
:101C4000020189F8001009F0DBF9DAF80000E9690F
:101C50000144A961042185F820104FF4806008F048
:101C600039FD052008F020FD24E6012E14D1DAF814
:101C70000000A9698142BFF44AAF364B197821B9F7
:101C8000029B1968CA073FF542AF99F8001021F08E
:101C9000020189F80010AAE7DAF80020EB69134482
:101CA000AB6134E73868DAF80030C188642000FBA3
:101CB00001312961002185F82010E970CDE79AF8FB
:101CC00074317EB9002B00F03F85244B1A68D4F89C
:101CD000AC309B1A002B80F2378509F091F984F81B
:101CE000B06033E73BB11D4A12684FF47A7101FBD3
:101CF0000323C4F8AC3094F8B030002B3FF426AF87
:101D000003F046FE002384F8B0301FE7002241E7CD
:101D1000D4F8B4300A2B30DC114B1B885E072CD46E
:101D2000104B1B784BBB06F08FFD06F07DFD4CE79A
:101D30000A000020FC1200205C1D00206C1D002009
:101D4000450900200000C842551E0020A40D0020B7
:101D50007913002084000020840D00209C140020B2
:101D60002E1E0020541E002099F80030580704D57C
:101D700094F82830002B40F0ED8494F8B230994E5E
:101D8000142B2ED13B78C3B194F8B1305F2B06D120
:101D900099F8003013F0040B6CD009F031F9B8F168
:101DA000000F0AD094F8B1307D2B06D199F800309D
:101DB00013F0040B64D009F023F999F8003013F004
:101DC00004020ED194F8B130572B5FD14FF47A73DF
:101DD000A4F8B830844B1B6813F0080301D1834A80
:101DE0001380009B1B68580725D594F8BA309BB127
:101DF00099F8003059070FD57D4BB3F90620BAF892
:101E00002C319A4208DD2B6813F0010301BF794A97
:101E100084F8BA30322111802B68DA0340F1A080B7
:101E2000754B1A782AB9754A127812B9714A32215B
:101E3000118001221A70366800232B6006F17F079B
:101E400006F1CF084FF0010BB84500F098803A78C2
:101E50007B789A420CDA394617F8010C03F074FDCE
:101E600030B117F8023C2A680BFA03F313432B60D6
:101E70000437E9E70B2003F095FD84F8B2B08EE754
:101E80000B2003F08FFD84F8B2B096E70099096843
:101E9000490740F167845A2B40F06484574B197806
:101EA00021B11A70564B01221A709AE794F8BA3091
:101EB00083F0010384F8BA301BB10C2003F072FDEB
:101EC0008FE70D20FAE75B2B00F051845E2B40F08A
:101ED0005C84032000F04CBCB8F1000F02D07E2BD4
:101EE00000F0608494F8B130972B04D1454B4FF447
:101EF000C8721A8075E7A72B05D1434A137843F0BF
:101F0000040313706DE70022BB2B099217D1022343
:101F1000ADF826303368BDF82410B3F85C200A44CD
:101F2000A3F85C20BDF82610B3F85E200A44A3F89D
:101F30005E2008F095FC002384F8B23051E7B72BFF
:101F400002D14FF6FE73E3E7BE2B03D10223ADF8B7
:101F50002430DFE7BD2B7FF444AF4FF6FE73F6E786
:101F6000264A1378002B3FF466AF99F8003013F03F
:101F700004037FF460AF13700122214B5AE7234F13
:101F800006F1CD054FF00C0806F215164FF0010BC7
:101F9000B5423FD06A78AB789A4221DA691C28783A
:101FA00003F0D2FCE0B16979EB78194A95F804C0E6
:101FB00008FB01FE013B07EB0E0003EB4303134458
:101FC000426893420CD043600023836094F8BB3096
:101FD00007F80EC00BFA01F123EA010184F8BB10E7
:101FE0000635D5E7BC130020BC090020080A0020F4
:101FF000FC120020021E0020221E0020231E0020B2
:10200000241E0020561E002079130020C813002033
:10201000AE120108C84AC94994F82830D2F80080A5
:102020000F68C74D019300260292042E00F0C08273
:102030006968002962D00A78002A5FD0A868381A37
:1020400000280BDB07F5FA70A860012000FA06FEF5
:1020500094F8BB0020EA0E0084F8BB00019B002B23
:102060004CD028784B780430C0B2002B40F0698205
:10207000B44B33F910E0BAF82A0100F1C80CE64578
:1020800028DD91F802B094F8BB103141CB0735D46C
:10209000BBF1000FCCBF02200120039203F0A8FC8B
:1020A000039A511E13293BD8DFE811F02B004200A0
:1020B0004F0061007A008200E5005601BA01EB0191
:1020C0001A023A0061006D008200E5005601DC0052
:1020D0003C01B101C838864504DA91F802B0CBF171
:1020E000000BD0E7012202FA06F194F8BB2022EAA5
:1020F000010284F8BB2007F5FA72AA6001360C359C
:1021000093E798F800209344BBF1FA0FA8BF4FF073
:10211000FA0B2BEAEB7B88F800B0404603F0F8FBA3
:1021200094F8BB100122B2400A4384F8BB20E5E7D3
:1021300098F801209344BBF1640FA8BF4FF0640BE3
:102140002BEAEB7B88F801B0E7E798F8032093448B
:10215000BBF1640FA8BF4FF0640B2BEAEB7B7A4A0C
:1021600088F803B01168404603F092FBD8E798F86E
:10217000051059446429A8BF642121EAE1710D2AA0
:1021800088F80510CCD098F804209344BBF1640F74
:10219000A8BF4FF0640B2BEAEB7B88F804B0BFE7D5
:1021A00098F8062093448BF3080B88F806B0B7E73D
:1021B00066490968087802283DD107EE90BAF8EE22
:1021C000E76AB2EE047AC6EE877A91ED0A7A77EE84
:1021D000877AF5EEC07AF1EE10FA29D49FED5C7A99
:1021E000F4EE477AF1EE10FAC8BFF0EE477A0F2A04
:1021F000C1ED0A7A94D007EE90BAF8EEE76AB2EE33
:10220000047AC6EE877A91ED097A77EE877AF5EE51
:10221000C07AF1EE10FA2BD49FED4D7AF4EE477AA6
:10222000F1EE10FAC8BFF0EE477AC1ED097A77E710
:10223000DFED487ADBE788785844C828A8BFC82073
:1022400020EAE0700F2A88703FF46AAF4A7893441E
:10225000BBF1C80FA8BF4FF0C80B2BEAEB7B81F88E
:1022600001B05DE7394A11680A78022AC3D0EDE768
:10227000DFED387AD9E735490968087802283AD17C
:1022800007EE90BA9FED327AF8EEE76AC6EE877AEB
:10229000D1ED0D6A77EEA67AF5EEC07AF1EE10FA7E
:1022A00026D4F4EE477AF1EE10FAC8BFF0EE477A82
:1022B000102AC1ED0D7A3FF433AF07EE90BA9FEDCF
:1022C000247AF8EEE76AC6EE877AD1ED0C6A77EEEB
:1022D000A67AF5EEC07AF1EE10FA29D4F4EE477A38
:1022E000F1EE10FAC8BFF0EE477AC1ED0C7A17E7AD
:1022F000DFED187ADCE7487B5844C828A8BFC8201F
:1023000020EAE070102A48733FF40AAF0A7B934436
:10231000BBF1C80FA8BF4FF0C80B2BEAEB7B81F8CD
:102320000CB0FDE6094A11680A78022AC5D0EDE72B
:10233000DFED087AD9E700BFA81300209C14002025
:10234000C8130020FC120020E0120020E41200203C
:102350000000C84200000000C0490968087802284F
:102360003ED107EE90BA9FEDBE7AF8EEE76AC6EE70
:10237000877A91ED107A77EE877AF5EEC07AF1EEF2
:1023800010FA2AD49FEDB77AF4EE477AF1EE10FAFC
:10239000C8BFF0EE477A112AC1ED107A3FF4C0AE03
:1023A00007EE90BA9FEDAE7AF8EEE76AC6EE877A4E
:1023B00091ED0F7A77EE877AF5EEC07AF1EE10FAAA
:1023C0002BD49FEDA87AF4EE477AF1EE10FAC8BF4D
:1023D000F0EE477AC1ED0F7AA2E6DFEDA37ADAE7F5
:1023E000087E5844C828A8BFC82020EAE070112AF7
:1023F00008763FF495AECA7D9344BBF1C80FA8BFE1
:102400004FF0C80B2BEAEB7B81F817B088E6934AB4
:1024100011680A78022AC3D0EDE7DFED937AD9E795
:102420008E4A11680A78022A1FD107EE90BAF8EE98
:10243000E76AB2EE047AC6EE877A91ED0B7A77EE10
:10244000877AF5EEC07AF1EE10FA0BD49FED857A1B
:10245000F4EE477AF1EE10FAC8BFF0EE477AC1ED1C
:102460000B7A5DE6DFED807AF9E7CA789344BBF139
:10247000C80FA8BF4FF0C80B2BEAEB7B81F803B065
:102480004EE6764A11680A78022A1DD107EE90BA04
:102490009FED747AF8EEE76AC6EE877AD1ED0E6AA0
:1024A00077EEA67AF5EEC07AF1EE10FA09D4F4EEE2
:1024B000477AF1EE10FAC8BFF0EE477AC1ED0E7A16
:1024C0002EE6DFED697AF9E78A7B9344BBF1C80F0A
:1024D000A8BF4FF0C80B2BEAEB7B81F80EB01FE6CC
:1024E0005E4A11680A78022A1FD107EE90BA9FED62
:1024F0005C7AF8EEE76AC6EE877A91ED117A77EEAC
:10250000877AF5EEC07AF1EE10FA0BD49FED557A8A
:10251000F4EE477AF1EE10FAC8BFF0EE477AC1ED5B
:10252000117AFDE5DFED507AF9E74A7E9344BBF17D
:10253000C80FA8BF4FF0C80B2BEAEB7B81F819B08E
:10254000EEE5012B7FF4ECAD0C2A7FF4E9AD474BAF
:10255000897833F910B0464B40F633008345A8BF65
:102560008346BBF5617FB8BF4FF4617B4FF4966043
:1025700090FBF1F01978ABF5617B9BFBF0FB5FFA08
:102580008BFB59453FF4CCADBBF1030FD4BF59468B
:102590000221197002FB01A2029B02F212521A6080
:1025A00005F0EAF80BF10100C0B203F021FAB7E53B
:1025B000304D314E2B6813F0020F06D1009B1B6883
:1025C000DF0506D52D4BDB781BB13368980700F18A
:1025D000ED80012008F07EF8012704E006F034F9D0
:1025E000012008F087F82A68510732D58FB30120FF
:1025F00008F070F8224B1B889A0704D406F024F9DF
:10260000022008F077F899F800305B0708D41C4BDB
:102610001B8803F044031BB11A4B1A881A4B1A800B
:10262000336813F00A0F40F0C9802B681A054FF485
:1026300080705AD508F05EF89AF80530082B02D061
:102640000E2B40F0C38040200BB0BDE8F04F08F0E7
:1026500041B8022008F03EF8D5E700BFE4120020A0
:1026600000007A440000C84200000000FC12002074
:10267000C0130020840D0020BC090020001400209D
:10268000301E0020080A0020381E0020514B1B88F5
:102690005F0706D4042008F02DF84F4B1A884F4BE3
:1026A0001A802B689E061CD54A4B1B88580602D4FC
:1026B000402008F01FF82B68590641BF464A118890
:1026C000474A518013F0080308D094F8BC30002B1F
:1026D000ABD1414B1A88424B5A80012384F8BC305D
:1026E000A3E7402007F0F6FFE5E707F0F3FFA3E7D5
:1026F00052F82530009883423FF637A9E8B2079296
:1027000007F012FD032D079A3FF731A994F82A101C
:102710000123AB4021EA030384F82A30FFF727B9ED
:102720000123AB70FFF7ADB842F21071E9610321EC
:1027300085F82010FFF7BEB82A4B1B78002B7FF4DA
:10274000BEAA002E7FF4D7AA102003F02BF9012394
:10275000FFF7D9BA11B9002E7FF40FAB08F050FC87
:10276000FFF70BBB5D2B7FF4AEAB012000E0022036
:10277000C7B27B1E8AF8103507F0DAFF05F046F87D
:10278000384603F035F9FFF72CBB562B01D108F082
:1027900067F83B78002B3FF4A5AB94F8B1306F2B72
:1027A0007FF49AAB08F0E2FBFFF71BBB094B1B88D9
:1027B00013F001073FF412AF002714E72B68DB0684
:1027C0003FF564AF042007F085FF6AE70BB0BDE872
:1027D000F08F00BF301E0020080A0020381E0020A5
:1027E0000A0000208400002038B5044624200D464D
:1027F00002F0C6FF4D2002F0C3FF002C094C14BFAD
:1028000021203E2002F0BCFF2368002228469A7156
:1028100002F0B6FF236893F84900BDE8384002F0A3
:10282000AFBF00BF341E002001460020DCE710B51A
:1028300002F09CFF044602F099FF04EB004010BD3B
:102840002DE9F84F4B282DED048B00F0118500F297
:10285000F080322800F050856BD8222800F04084A8
:102860002BD8032800F0CE8207D8012800F0AD82D3
:10287000022800F0B7820020C0E2042800F0C982DC
:102880000528F8D11A20FFF7CFFFC84D0024285D96
:10289000013402F075FF0B2CF9D1C54D0024285DE1
:1028A000013402F06DFF082CF9D10024002001341E
:1028B00002F066FF072CF9D19FE2282800F0BF84C0
:1028C00013D8242800F0B0842628D4D1B94C06208F
:1028D000FFF7AAFFB4F8E80002F064FFB4F8EA00DA
:1028E00002F060FFB4F8EC004CE22A2800F0BA8451
:1028F0002C28C0D1AF4C0C20FFF796FF94F8240190
:1029000002F03EFFB4F82E0102F04CFFB4F82A01A9
:1029100002F048FFB4F82C0102F044FF94F82501BE
:1029200002F02EFFB4F8300102F03CFFB4F832019F
:1029300028E23D2800F0178344D8382800F07A8434
:1029400033D8342800F0EF83362894D19A4D994C2F
:1029500095F86400C0EBC000C0B2FFF765FF04F15A
:102960002006683594F97E0100230C33EA1812F929
:102970000C2C824240F0D584C0B202F001FFB4F8C2
:10298000800102F00FFF94F8820102F0F9FE94F842
:10299000830102F0F5FE94F8850102F0F1FE94F84F
:1029A000840102F0EDFE00F0BFBC3A2800F0D282B4
:1029B0003B287FF460AF0120FFF736FF7F4B1B6899
:1029C00018780CE2452800F0C18426D8402800F091
:1029D0009A8442287FF44FAF764C1020FFF724FFF3
:1029E000607902F0CDFEA06802F0E5FE94F82401C3
:1029F00002F0C6FEB4F8E80002F0D4FEB4F8EA0033
:102A000002F0D0FEB4F8EC0002F0CCFEB4F81401F1
:102A100002F0C8FEB4F81601B4E1462800F089843B
:102A200049287FF428AF0220FFF7FEFE614B98890A
:102A3000A8E1732800F0C38300F256816C2800F0EF
:102A4000518200F2D180662800F0168200F2958053
:102A50004D2800F0318465287FF40DAF0B20FFF77F
:102A6000E3FE574B544C188802F09CFE554B1A68F5
:102A7000554B9A420CBF554B554B188880B202F00B
:102A800091FE2068C0F3C003C0F380029B0043EABC
:102A90004203C0F340021343C0F3401243EAC203AF
:102AA00000F01000184302F07DFE4A4B26791A8888
:102AB000494B1968494B1B7802F00100C3F38003AE
:102AC00043EA4003C2F3400043EA800302F00800F7
:102AD0000343C2F3800043EA0013C2F3801043EAC9
:102AE000401301F04000034301F08000034301F470
:102AF00080700343C2F3001043EA4023C2F3401046
:102B000043EA8023C2F3002043EAC02301F480504B
:102B1000034301F40050034301F48040034301F4F4
:102B20000040034301F48030034301F400300343C9
:102B300001F48020034301F40020034301F48010DA
:102B40000343C2F3402043EA405301F00071C2F353
:102B500080220B43002043EA8263053402460125AC
:102B6000B24280F06681115D05FA01F119421CBF85
:102B700005FA02F108430132F2E7682800F0A68165
:102B800069287FF478AE164D164E2878400000F084
:102B9000FE00FFF749FE00242B789C4280F02D8137
:102BA00036F8140002F0FEFD0134F5E7EA150108DD
:102BB000F6150108A40D0020BC090020BC1300205C
:102BC0002E1E0020B00B002000540040700D00208D
:102BD000720D0020301E0020840D0020951300206F
:102BE000A00D0020FC1200206F2800F0C78130D813
:102BF0006D2800F086816E287FF43DAE0720FFF738
:102C000013FEC54BC54C1888FF28A8BFFF20C0B2D3
:102C100002F0B6FDA06D4FF6FF75A842A8BF28468A
:102C200020EAE07080B202F0BDFDB4F85C0002F072
:102C3000B9FDBB4B93F81931002B00F09081236E46
:102C40000A205843A842A8BF284620EAE07080B274
:102C500098E0702800F0BA8172287FF40CAEB04C76
:102C60001620FFF7E1FDB4F82A0102F09BFDB4F84D
:102C7000D00002F097FDB4F8D20002F093FDB4F852
:102C8000D40002F08FFDB4F86C0102F08BFD00203F
:102C900002F076FD002002F073FD002002F070FDCE
:102CA00094F8190102F06CFD94F8260102F068FD19
:102CB000002002F065FD9B4B1B68B3F95A000A2304
:102CC00090FBF3F080B202F06DFD94F80E0102F07B
:102CD00057FD94F8120102F053FD94F8110102F02F
:102CE0004FFD94F813017AE0A02800F08D8222D8DD
:102CF000772800F049820FD8742846D075287FF4D1
:102D0000BAAD2F20FFF790FD874C14F8010F002873
:102D100073D002F035FDF8E77B2800F026837C288D
:102D20007FF4A9AD0320FFF77FFD804B187802F0F8
:102D300039FD7F4B44E6F02800F059820AD8DD289F
:102D400000F01083DE287FF496ADFFF770FDFFF7EB
:102D50006EFD52E0FE2800F03D82FF287FF48BAD2F
:102D6000744A6E4C1188002323840122114266D1DB
:102D700001339BB25200092B92B2F7D10220FFF728
:102D800053FD208C02F00EFD37E0644F00264FF01B
:102D9000010ADFF8BC914FF0000B3B795B4540F333
:102DA000E981654B0C251BF80340002305FB03F26A
:102DB00002EB090012F80920A24200F0DC82013384
:102DC0001C2BF3D10BF1010BE7E70320FFF72CFDE0
:102DD000002002F0D5FC022002F0D2FC002002F01C
:102DE000CFFC0AE00520FFF71FFD544D0024285DAD
:102DF000013402F0C5FC052CF9D10120BDEC048B97
:102E0000BDE8F88FFFF710FD022002F0B9FC0020AA
:102E1000E2E70B20FFF708FD072002F0C3FC484D56
:102E20000024285D013402F0ABFC072CF9D100200E
:102E3000A8E702F0C0FC3A4B93F81005CFE7013B3E
:102E4000072B05D8DFE803F007090B0E1012141644
:102E50000123238492E70223FBE74023F9E74FF4A1
:102E60008073F6E78023F4E72023F2E71023F0E7EE
:102E70000823EEE70423ECE71220FFF7D5FC314BE3
:102E8000264C1B88B3F5806FD4BF01260826002589
:102E900004F1220737F9150090FBF6F0013580B2F6
:102EA00002F080FC032DF5D1208D02F07BFC608DBB
:102EB00002F078FCA08D244C02F074FC208802F013
:102EC00071FC608802F06EFCA0885BE71020FFF7C1
:102ED000ABFC1E4D0024285D013402F051FC102C87
:102EE000F9D18AE70D4C0620FFF79EFCB4F84600A6
:102EF00002F058FCB4F8480002F054FCB4F84C005E
:102F000040E7064C0620FFF78FFC206D02F053FCD3
:102F1000B4F8540036E700BF001E0020BC090020B2
:102F2000A40D0020BC130020E9120108551E00204A
:102F3000900000202E1E0020C1090020DC15010891
:102F4000E21501084C00002068130020EA09002067
:102F50008C1401080420FFF767FC002061E1206E5B
:102F600000F30F0073E6CA4C0220FFF75DFC94F8F3
:102F7000740102F005FC94F8730130E7C54C0B2096
:102F8000FFF752FC2368187802F0FAFB23685878A0
:102F900002F0F6FB002523682B440135187902F076
:102FA000EFFB032DF7D12368D87902F0E9FB236802
:102FB000987802F0E5FB2368D87802F0E1FB2368FB
:102FC000588902F0EFFB2368187A08E7B24C2120F9
:102FD000FFF72AFC23681B78022B4FF000056CD109
:102FE0009FEDAE9ADFEDAE8AB2EE048A236803EB62
:102FF000850393ED090A20EE080A0CF08FFA80F39E
:103000000800C0B202F0BCFB236803EB850393ED1C
:103010000C0A20EE090A0CF081FA80F30800C0B215
:1030200002F0AEFB236803EB850393ED0F0A20EE5D
:10303000280A0CF073FA80F30800C0B2013502F0E0
:103040009FFB032DD2D1072D236829D193ED120ABE
:1030500020EE080A0CF062FA80F30800C0B202F019
:103060008FFB236893ED130A20EE080A0CF056FA42
:1030700080F30800C0B202F083FB236893F850305D
:1030800000EE103AB8EE400A0CF048FAFF28A8BF4C
:10309000FF20C0B2013502F073FB0B2DD3D1ACE69B
:1030A0002B44587802F06CFB23682B44187B02F009
:1030B00067FB23682B44D87DECE723682B445878C2
:1030C00002F05EFB23682B44187B02F059FB236857
:1030D0002B440135D87D02F053FB0B2DEDD18CE64E
:1030E0005020FFF7A1FBDFF8B0816E4E00250C27C2
:1030F000D8F8004004EB8504013594F87D3007FBD7
:103100000363187A02F03CFB94F87E0002F038FB6F
:1031100094F87F0002F034FB94F8800002F030FB5A
:10312000142DE5D169E64820FFF77EFB5A4F0025B4
:1031300006263C6806FB0544013594F8D20002F0EF
:103140001FFB94F8CD0002F01BFB94F8CE0002F0B8
:1031500017FB94F8CF0002F013FB94F8D00002F0B4
:103160000FFB94F8D10002F00BFB0C2DE1D144E6EB
:10317000464427E6BAF1000F3FF43FAEF0B2FFF746
:1031800053FB4FF0000A04E6474C464D2079FFF709
:103190004BFB0026671D4FF00C0823799E42BFF4BD
:1031A0002CAEF05D002308FB03F25119525D824200
:1031B00000F0F48001331C2BF5D10136EDE7082037
:1031C000FFF732FB0124E0B2013402F0D9FA092CF6
:1031D000F9D112E60820FFF727FB002002F0E2FAFF
:1031E000002002F0DFFA002002F0DCFA1FE62A4C91
:1031F0000420FFF719FB2368B3F85E0002F0D2FA4F
:103200002368B3F85C00BDE50C20FFF70DFB274BEE
:10321000186802F0D0FA264B186802F0CCFA254B59
:10322000186802F0C8FAE8E50420FFF7FDFA184B29
:103230009868F6E70420FFF7F7FA154C45E5144CBB
:103240000720FFF7F1FAB4F8140102F0ABFAB4F872
:10325000160102F0A7FA94F8180102F091FAB4F8F6
:103260001A018FE50120FFF7DFFA094B5879B6E51F
:10327000074C0420FFF7D8FA94F86A0102F080FAAC
:1032800094F86B0102F07CFAB4F86C017AE500BFA7
:10329000A40D0020A8130020BC1300200000C84289
:1032A00000007A448C140108BC090020ACF7FF1F11
:1032B000B0F7FF1FB4F7FF1F3A4D3B4C287800EBE7
:1032C0004000C0B2FFF7B0FA00262B789E4204F10E
:1032D0000204BFF492AD14F8020C02F051FA14F893
:1032E000010C00EB800000EB800000F2EE2080B2C9
:1032F00002F058FA0136E8E70120FFF795FA2B4B68
:1033000093F826016BE50820FFF78EFA274D00247D
:103310006319013493F81C0102F032FA082CF7D13A
:103320006BE5302B7FF421AB0834A6427FF41AAB57
:1033300063E50D20FFF778FA002002F021FA002063
:1033400002F039FA002002F036FA06E61320FFF701
:103350006BFA174D0024285D013402F011FA0B2C92
:10336000F9D1EFE702F002FA47E50220FFF75CFA35
:10337000104B188806E54568284607F081FF80460F
:10338000BAF1000F7FF4F4AE2C46631B98457FF72B
:1033900019AD14F8010B02F0F3F9F6E7087A02F020
:1033A000EFF90AE7A00D0020D80E0020A40D0020A0
:1033B000EA1501089200002010F80A3C0133DBB244
:1033C0000A2B00F80A3C07D910F8131C034A002303
:1033D00022F8113000F80A3C704700BF540A002060
:1033E000324A936D106A1944081A40F68C239842A9
:1033F00030B5134611625062D16138D9117E92F90D
:103400005D2091421ED10A1F082A1BD893F85E2026
:10341000182A03DC013283F85E2001E083F85C1097
:1034200093F95C2091421AD193F85F00B8B1204C17
:103430000020824208DC00200B2A0BDC23F812005B
:103440000132F9E70022E6E754F8045F23F8105050
:103450000130EEE793F86020013283F8602001220A
:1034600083F85F20002283F85D101A7630BD92F851
:103470005F10C9B1A0F2EF2440F2DA518C4208D8B3
:10348000117E0B2905DC02EB810301311176986274
:1034900030BD0022074883F85F2011461346C2184A
:1034A0000433302B1161FAD130BD00BF540A002023
:1034B000780A00206C0A0020024A936D01330B4405
:1034C00093657047540A0020034B03EB8000436E62
:1034D0001B681960704700BF540A0020074B03EBBC
:1034E0008000436EA1F57A701A6819894FF47A73D7
:1034F000414391FBF3F11160704700BF540A002073
:10350000F0B5046D8668236823F001032360837996
:10351000054613F0020F407914BF4FF40052002209
:1035200013F0040F14BF4FF48067002710F0010F51
:1035300014BF042100218307206820F001002060CF
:10354000606820F4405042EA00026260236823F47D
:10355000B05323F00C0348BF41F008013B430B4339
:103560002360A36895B023F44073A360684603F01A
:1035700089FA284B9C4239D10C9A23681F0448BF12
:103580005200B2FBF6F306FB1322B2EB560F226891
:1035900028BF0133160406D5C3F3420223F00F03FC
:1035A0001B041B0C13439BB2A3816B79A87913F006
:1035B000020F0CBF00224FF4003200F00101DC07C3
:1035C00048BF42F480322B6D01B359680A435A60F8
:1035D0009A6801074CBF42F0080222F008029A6084
:1035E0001A6842F001021A6015B0F0BD0A4B9C4205
:1035F00001D10D9AC1E7094B9C4201D10E9ABCE75B
:10360000074B9C420CBF0F9A109AB6E7596821EA03
:103610000202DCE70038014000440040004800405E
:10362000004C004030B5404B93F89430012B14BF50
:1036300000240324036AC1B923F0010303628169F2
:10364000036A21F0F30123F00A0341F0010142F083
:1036500001021A4341EA041181610262836923F085
:103660000C0383618369836130BD04291BD123F07E
:1036700010031B041B0C03628169036A120123F00F
:10368000A00321F473411B0442F010021B0C41F40F
:10369000807192B21A4341EA043181610262836906
:1036A00023F44063DDE7082920D123F480731B0451
:1036B0001B0C0362C169056A4FF2FF532B4089B2AC
:1036C00043EA022221F0F30141F0010142F4807249
:1036D00041EA041192B2C1610262C36923F00C0392
:1036E0001B041B0CC361C369C36130BD23F4805349
:1036F0001B041B0C0362C169036A23F4005321F409
:1037000040715B045B0C090543EA0232090D41F488
:10371000807142F4805241EA043192B2C161026286
:10372000C36923F44063DBE7540A002038B510F87E
:103730000E2C50F8043C044652B9012200F80E2C1D
:1037400020F80C1C997A18680222BDE8384069E715
:1037500030F80C2C20F80A1C891A89B220F8081CB1
:10376000074A10F80F0C002522F8101004F80E5C20
:103770002A46997A1868FFF755FF04F8065C38BDA9
:10378000540A0020F7B506460D46002401272A8872
:1037900007FA04F31A421AD0AA78009302F003033E
:1037A0008DF80430EB78022B03D0032B0CBF0323DE
:1037B00001238DF805306946C2F301133046C2F388
:1037C00081028DF806308DF8072006F01DFE0134C9
:1037D000102CDCD103B0F0BD2DE9F743DFF81C92CB
:1037E00099F895400746154600680A4698462946C6
:1037F000631C89F8953004F04BFC3B89ADF804302C
:1038000001A9022378688DF806308DF80730FFF79C
:10381000B9FF97F80AE03A6809F1980606EB041632
:103820004946BEF10C0F36D8DFE80EF007353535C6
:103830005735353582353535AC00136ADFF8C09120
:1038400023F001031362136AD2F804C0906920F4D4
:10385000803020F073004A4540F0700034D009F504
:1038600000694A4530D009F540694A452CD009F530
:1038700080694A4528D009F580694A4524D043F03B
:103880000303C2F804C09061C2F8348013629369E4
:1038900043F0080393613B7B1BB1536C43F400433B
:1038A000536413889BB243F0010313802301BEF1DC
:1038B0000C0F00F28E80DFE80EF0878C8C8C958CDC
:1038C0008C8C998C8C8C9D0023F00E032CF4407C06
:1038D00043F003034CF4807CD3E7136ADFF82091B4
:1038E00023F010031362136AD2F804C0906920F029
:1038F000807020F4E6404A4540F4E0400FD009F5DE
:1039000000694A450BD043F03003C2F804C090610F
:10391000C2F838801362936943F40063BAE723F076
:10392000E0032CF4406C43F030034CF4806CECE783
:10393000136ADFF8CC9023F480731362106AD2F814
:1039400004C0D3694A4523F0730343F0700310D0D9
:1039500009F500694A450CD040F44070C2F804C033
:10396000D361C2F83C801062D36943F00803D3618D
:1039700091E720F460602CF4405C40F440704CF41B
:10398000805CEBE7136ADFF8789023F480531362CE
:10399000106AD2F804C0D3694A4523F4E64343F4DD
:1039A000E04340F4405003D009F500694A4501D195
:1039B0004CF4804CC2F804C0D361C2F8408010625D
:1039C000D36943F40063D2E7C81802F13404C0F8A5
:1039D000984019443046A1F8A050C1F89C2003B08B
:1039E000BDE8F083C81802F13804F0E7C81802F106
:1039F0003C04ECE7C81802F14004E8E7540A002050
:103A0000002C0140F8B5414C4000C6B24FF42045AF
:103A1000D4F85C01C4F8585187693F041CD56F1E67
:103A200085B13D46F8E700264FF4204187697F07BE
:103A300060D50EB1C4F85811416A03F8011B013A70
:103A4000D2B23AE04FF0FF33C4F8583102F092FDA1
:103A5000003018BF0120F8BD476827F07F7727F4B2
:103A6000593727F47F7727F0030746F490353D4315
:103A700045604FF42045C4F858518769BF072ED5DB
:103A80004FF420458162C4F85851002187697F06B0
:103A90002AD509B1C4F8585145681D4925F07F75EC
:103AA00025F4593525F47F7541EA024125F00305D7
:103AB0003143294341604FF42045C4F85851D4F8AC
:103AC0005C01002AAFD14FF420438169890617D5E4
:103AD0000AB1C4F858312023C3610120F8BD6F1E1C
:103AE000002DAFD03D46C8E76F1E0121002DA9D0A3
:103AF0003D46CBE74F1E01260029A3D0394695E766
:103B0000591E0122002B9DD00B46DEE7540A0020EF
:103B10000024000207B502AB03F8012D012202F0D8
:103B20003DFD03B05DF804FB13B5012204466B466E
:103B300002210C20FFF766FF10B9002002B010BD73
:103B40009DF80030DA07F8D56B46072203210C20D8
:103B5000FFF758FF0028F0D09DF806309B07ECD106
:103B60009DF801209DF800309DF8031043EA0223E0
:103B70001BB21D4A07EE903A92ED007AF8EEE77A12
:103B80000C2067EE877A92ED017AFDEEE77A17EE68
:103B9000903A23809DF8023043EA01231BB207EEDE
:103BA000903AF8EEE77A9DF8051067EE877A92ED85
:103BB000027AFDEEE77A012217EE903A63809DF8D3
:103BC000043043EA01231BB207EE903AF8EEE77A9D
:103BD0000A2167EE877AFDEEE77A17EE903AA38026
:103BE000FFF798FFAAE700BF1000002007B50022EA
:103BF0000A210C20FFF78EFF142001F031FF0F2265
:103C00000A210C20FFF786FF0A2001F029FF01ABF3
:103C1000032210210C20FFF7F5FE0A2001F020FFFF
:103C20009DF904209FED295ADFED295A294B06EE14
:103C3000902AF8EEE66AF7EE007A76EEC56A9DF90C
:103C40000520B0EE677AA6EEA57A0A210C2006EED2
:103C5000902AB3EE0E6AF8EEE66A27EE067A76EE62
:103C6000C56A83ED007AB0EE677AA6EEA57A9DF973
:103C7000062027EE067A83ED017A07EE102AB8EEC9
:103C8000C77A002237EE457AE7EE257A67EE867A24
:103C9000C3ED027AFFF73EFF0A2001F0E1FE0DF1CD
:103CA0000303012202210C20FFF7ACFE0DF10303F8
:103CB000012209210C20FFF7A5FE01220A210C2078
:103CC000FFF728FF012003B05DF804FB000000436C
:103CD0000000803B100000202DE9F04F87B08046A7
:103CE00003939B4B1B88980740F1FA80994C109BDB
:103CF000DE89B4F900309B1B03F2F31540F2E63085
:103D00008542254698BF83EAE374B5F90200A0EB2B
:103D1000060098BFA4EBE37400F2F31540F2E6331B
:103D200088BF4FF4FA749D4200F2D78080EAE073B6
:103D3000A3EBE073A342B8BF23460520C3F5FA7393
:103D400093FBF0F30A20643B584398F81E30DB10D5
:103D50004343642093FBF0F3034423EAE3735BB231
:103D60007D4D7E4C6868019323689FED7D7A1B1A18
:103D700007EE903AF8EE677A23686B6067EE877A11
:103D80000B1DC5ED007A029305F10809002405F129
:103D9000140A029B022C13F8010B02934FEA44070A
:103DA00040F0A08000F11B01B5F924004843401108
:103DB000E8616C4908EB040BCE5F042196FBF1F13E
:103DC0005AF82460761A9BF8011006FB01F0664948
:103DD000615C4143642091FBF0F1C91100EE101ABF
:103DE00098F85510A30059B1604805921844B8EEF0
:103DF000C00A049301F0AEFE059A049BBDEEC00A12
:103E00005B495948B1F800E09BF80C1010F804C069
:103E1000D5ED007A06FB0EF6F612714300F110069E
:103E20000CFB01F14FF0640E91FBFEFE99597144B9
:103E3000B1F5001FDFF84CE1A8BF4FF40011714548
:103E4000F5EEC07AB8BF7146F1EE10FA99514FEA1B
:103E5000613118DD434BD9ED006ADB5F1C30B1EEF8
:103E6000087AC05F1B1A07EE903AF8EEE77AB2EED6
:103E7000046A77EEE67A67EE877A87EE867A77EEDF
:103E8000267AC9ED007A37483A4BC05BD8539BF885
:103E90001700F9EC017ADFED386A07EE100AB8EE88
:103EA000C77A063327EE277A07EE90CAF8EEE77A4C
:103EB000013467EE277A032C87EEA67ABDEEC77A27
:103EC00017EE100AA1EBA01110EE100A0144D9530D
:103ED0007FF45FAF07B0BDE8F08F4FF4FA732CE7C3
:103EE00064233DE7254B33F9141053424E009E42A4
:103EF00003DB96423346A8BF1346214EF65F9B1B59
:103F0000039E36F914603344114E368816F0010FC3
:103F10004FEA840E14D11B3048430011B1074AF810
:103F200024007FF546AF98F813104B4301994B439B
:103F3000642193FBF1F300EB23104AF80E0038E7FD
:103F400098F808104B431B114AF8243031E700BFA2
:103F5000301E0020FC120020B40B00209C14002016
:103F60006F12833AE4090020DC0B0020E00B0020F4
:103F7000040D0020F80B00200000C842D40B0020E4
:103F8000020A00200000E0FF2DE9F04F2DED028B2A
:103F900085B0074603939C4B02911D88019215F052
:103FA000020512D0994BB3F92050B3F92230002DFD
:103FB000B8BF6D42002BB8BF5B429D42B8BF1D46E3
:103FC000B5F5007FA8BF4FF40075DFF860B207F1C8
:103FD000010A00243BF914108D4B002933F91420F9
:103FE0004FF0040E91FBFEFEB8BF4942B1F5206FC1
:103FF0004FEA44094FEA420203F1180100F3FB8043
:1040000051F82430A2EB0E000344B3F57A5FA8BF49
:104010004FF47A537F488342ACBF41F8243041F8D3
:1040200024007D4B9AF80B6053F824307649DB115D
:104030005E4309889AF80030890702FB03F34FEAD0
:1040400084084FEAA6160AF1010A4FEAA31339D0F1
:10405000019949428A4203DB01999142A8BF114666
:104060006E4A6F4839F90220891A039A32F91420EE
:10407000114458F8002042F2107C0A446245A8BF5F
:104080006246DFF8B8C16245B8BF624648F8002012
:10409000387A4143B87F00EB8000C911C0F1000CB1
:1040A000614503DB8142A8BF01468C46F97C4A4347
:1040B0001213B61AA3EB0C036E436B4302EB662696
:1040C0000CEB6323574897F85510025D12FB0EFE68
:1040D000A3EBAE1308EE103A39B12C38B8EEC80A8B
:1040E000404401F037FDBDEEC08A4F4839F90B203E
:1040F00039F9001029F800204FF0040E511A00F190
:104100000C0C91FBFEF1864458F80C2058F80E3048
:1041100048F80E101A440A4497F8541048F80C3026
:1041200000EE102A39B114304044B8EEC00A01F054
:1041300011FDBDEEC00A354901F17C0310EE102AD5
:104140001B5D5A4318EE103A01F14A003344013422
:10415000A3EB6216022C29F800600A467FF43AAFFE
:10416000029B99790F314B00B2F924105943491140
:104170002E4B0029B3F904304FF0040093FBF0F309
:10418000A1EB0303B8BF4942322938DC106CB97B7C
:1041900003FB010126488142A8BF01462548814210
:1041A000ACBF11641064F9784B43234909780329A3
:1041B0004FEAA3130ADDB7F85210B1F5FA7F05DA1A
:1041C000484283421EDB8B42A8BF0B46116C41F371
:1041D0004F31B1F5807FA8BF4FF480716FF0FF00C1
:1041E0008142ACBF5B181B18A2F84E3005B0BDEC85
:1041F000028BBDE8F08F002341F8243011E7002145
:104200001164D0E70346E1E7301E0020B40B002024
:10421000D40B002080C1FFFFEC0B0020020A00201D
:10422000040C00200C0C0020100C0020E4090020DD
:10423000FEFFFF0F020000F0060D0020F0D8FFFF88
:104240002DE9F04F2DED028B87B000250493B44B80
:104250000292B3F92080B3F922200391B8F1000F44
:10426000B8BFC8F10008002AB8BF52429045B8BF95
:104270009046B8F5FA7F03F138030646A8BF4FF41D
:10428000FA78AB460095A9462C460193A54B1A88AF
:1042900012F003013AD0A44B33F91400029B400002
:1042A0005B4298424FEA440703DB029B8342A8BF6C
:1042B00003469E483F5E0498DB1B30F914701F4490
:1042C000337A64207B4393FBF0F3B07F6FF00409F3
:1042D00009FB00F94B4504DB00EB80099945A8BFB9
:1042E0009946934850F824303B4442F21077BB4241
:1042F000A8BF3B468F4FBB42B8BF3B4640F8243077
:10430000F07C43431B130129009335D0864B33F9CE
:1043100014B0894B33F9141081EAE173A3EBE17314
:10432000B3F5206F00F3EA8030190BEB8B03407874
:104330001B0193FBF0F3042091FBF0F15B1A019950
:10434000019851F824100B44B3F57A5FA8BF4FF4DD
:104350007A537A498B42ACBF40F8243040F824109D
:10436000774B311953F824507D2395FBF3F30D7BE4
:104370005D43402395FBF3F5910740F1C48000981D
:10438000C8F5FA7308FB05F708FB0BF209FB0322DB
:104390004FF4FA7100FB037392FBF1F293FBF1F718
:1043A000654B684833F91430042193FBF1F1235C29
:1043B00013FB01F36FF04F0193FBF1F396F85510E7
:1043C00013444FEA440A08EE103A41B12C38B8EED3
:1043D000C80A00EB840001F0BDFBBDEEC08A5A4A5A
:1043E000554B3AF902103AF903302AF8023004200A
:1043F00002EB000E02F10C0C591AA30091FBF0F134
:1044000005935EF824005CF824304EF82410034431
:104410000B4496F854104CF8240000EE103A49B1C1
:10442000A2F11000A3001844B8EEC00A01F092FBFC
:10443000BDEEC00A3A4A18EE103A02F17C003B4445
:10444000005D1F4610EE103A02F14A010134434369
:10445000022C4FF0200093FBF0F3A7EB03072AF8A0
:1044600001707FF413AF039B99790F314B00B2F9C0
:10447000241059434911304B0029B3F904304FF04F
:10448000040093FBF0F3A1EB0303B8BF49423229C8
:1044900040DC106CB17B03FB01012C488142A8BFBA
:1044A00001462B488142ACBF11641064F1784B4344
:1044B0002849097803294FEAA3130ADDB6F85210F8
:1044C000B1F5FA7F05DA4842834226DB8B42A8BF6A
:1044D0000B46116C41F34F31B1F5807FA8BF4FF40B
:1044E00080716FF0FF008142ACBF5B181B18A2F80F
:1044F0004E3007B0BDEC028BBDE8F08F0199002370
:1045000041F824302CE7D30759BF2F465A46009F65
:104510004A4645E700211164C8E70346D9E700BFD2
:10452000B40B0020301E0020D40B0020020A002013
:10453000040C0020F0D8FFFFE409002080C1FFFF39
:10454000EC0B00200C0C0020340C0020FEFFFF0FB1
:10455000020000F0060D00202DE9F04F2DED088B34
:1045600087B00446039390F8543002910192002BD7
:1045700000F04881322BA8BF322307EE903ADFEDDE
:10458000BC6AF8EEE77A86EEA77ABA4BDFF8348396
:104590001B88002B08BF012307EE903A9FEDB6AAB7
:1045A000B64BF8EEE78A1B8828EE8AAA13F0020FB2
:1045B00037EE0A7ACAEE079A00F02781B8F9203060
:1045C000B8F92220002BB8BF5B42002AB8BF524284
:1045D0009342B8BF1346B3F5E17FA8BF4FF4E17330
:1045E00007EE903A9FEDA67AF8EEE77AC7EE87AA33
:1045F000A44EDFF8D4A2A6F14A0306F1080B06F197
:10460000100706F11C09002504939FED9F9AF0EE18
:1046100049BA022D00F05C813AF915C09B499FED23
:104620009CBA07EE90CAF8EEE77AB5EE047A6B0012
:1046300067EE877A059331F915309049FDEEE77AF8
:104640000888F8EEE77A00EE103A810727EE8BBA79
:10465000B8EEC00A6AD070EE007A019BFDEEE77AF0
:10466000594217EE90EA8E4503DB7345A8BF7346A7
:104670001946884B9FED886A6A00B1EE047A32F9D8
:1046800003E0039BA1EB0E0133F915E0A37F06EED7
:10469000903A237AF8EE666A714407EE901A66EE55
:1046A000876A07EE103AF8EEE77AB8EE477A27EE17
:1046B000277A27EE067ABDEEC77A17EE101AB1EE0A
:1046C000667ABDEEC77A17EE10EA714506DBBDEEDD
:1046D000E67A17EE10EA8E45A8BF8E4699ED009A4D
:1046E000AAEE279A07EE10EAF8EEC7BABBEE0E7AEA
:1046F000B4EEC79AF1EE10FAF0EE497A00F1888034
:10470000B3EE0E7AB4EE479AF1EE10FAC8BFF0EEAF
:10471000477AC9ED007AE37C09EE103AB8EE499A7F
:1047200029EE279ADFED5D7A29EE279AC20700F17C
:104730009980BCF1000FB8BFCCF1000CBCF5206F24
:1047400004EB050167DD4FF0000EC7F800E00B7BBE
:10475000D7ED007A08EE103AB8EE488A830728EEC3
:10476000278ADFED4F7A28EE278A0FD530EE6B0AC5
:10477000F0EE6B7AEAEE807A38EE498AB0EE670A9C
:10478000F0EE497AEAEE887AB0EE678A4548DFEDC6
:10479000467A2B5C94F8551007EE103AB8EEC77ABB
:1047A0002BEE477AA7EE270A21B12C3800EB8500C3
:1047B00001F0D0F9D6ED007A3C4BA6EC01BA7BEEC5
:1047C000677AEB5C87EE8A7A043709F10409DBED3E
:1047D000007A37EE677A30EE080AE9EE877A07EE5C
:1047E000103AB8EEC77AEBEC017A67EEC77A9FED24
:1047F000307AA7EE870A0AF091FE6A00049B013521
:10480000985206E79FED2B7ABFE6DFED1FAAEFE691
:10481000F0EE477A7DE74B78DFED276A07EE903AB6
:1048200060EE266AF8EE677A86EEA77AD7ED007A10
:1048300037EE4B7AEAEE077A9FED207AF4EEC77AEC
:10484000F1EE10FA0BD49FED1E7AF4EE477AF1EEFA
:1048500010FAC8BFF0EE477AC7ED007A77E7F0EEBE
:10486000477AF9E7B0EE498AB0EE6B0A8EE700BFEF
:1048700083F9223E040D0020BD378635301E00200E
:104880000000E143480C002000000000D40B002091
:10489000CDCC4C40020A00206F12033C0AD7A33D46
:1048A0000AD7233C0C0C0020A69B443B300C002074
:1048B000F7CC9238AF4C593C0000A043000040C3F5
:1048C00000004043B40B0020E409002000803B4579
:1048D000FDEEE88A5FED037A94F857707D4D18EE8F
:1048E000903A23F0030308EE903A029BF8EEE88A30
:1048F0009A7988EEA79AB5EE000A002F7ED0B8F913
:1049000024607549BAF9043086EAE677A7EBE677C2
:104910007A4392FBF1F2E17864324A43642192FBDC
:10492000F1F207EE902AF8EEE78A07EE903AF8EEF9
:10493000E77A27EE800A0AF0F1FD07EE900AF8EE1A
:10494000E77A9FED667A67EEA88A80EAE073C8EEA0
:10495000877AA3EBE073B3F5207F07EE106AB8EE19
:10496000C70A30EE670A01DC642F1CDD00232B64CC
:1049700094F8551011B15A4801F0ECF830EE080ADD
:10498000FDEEC07ACDED017ABDF9043000EE103AAB
:10499000B8EEC00A0AF0C2FDA5F84E0007B0BDECA3
:1049A000088BBDE8F08F06EB8603E2781B0193FBD2
:1049B000F2F31B1A07EE903AF8EEE77AD8F8403097
:1049C00067EE897AFDEEE77A17EE902A1A441346CD
:1049D000B2F57A5F434AA8BF4FF47A539342B8BF07
:1049E0001346C8F840307D2293FBF2F3A27B534379
:1049F0009B1107EE903AB8EEE78AB9E7BAF90430AE
:104A0000B5F9246007EE903A5200F8EEE77A2832C2
:104A1000724327EE800A56110AF080FD002EA6EBA5
:104A2000000007EE900AB8BF7642322EB8EEE77A61
:104A300036DD2F642B6C5B13B3F5807FA8BF4FF47A
:104A400080736FF0FF029342B8BF134607EE903AAF
:104A5000B8EEE78AFDEEC77AE27817EE903A534354
:104A60009B1100EE103A204B1B78032BB8EEC00AC6
:104A70007FF77EAFB4F85220B2F5FA7FBFF678AF79
:104A8000FDEEC07A534217EE901A994203DB8A4238
:104A90001346A8BF0B4607EE903AB8EEE70A67E761
:104AA000A37B2A6C07EE903AF8EE677A67EE877A76
:104AB00067EE897AFDEEE77A17EE903A13440B4AD7
:104AC0009342A8BF13460A4A9342ACBF2B642A64A0
:104AD000B0E700BFB40B00200CFEFFFF0000A042B7
:104AE000E80B002080C1FFFF060D0020FEFFFF0F36
:104AF000020000F090ED010A90ED007AD0ED027A0C
:104B000020EE000A38B5A7EE070A04460D46A7EEC8
:104B1000A70A0AF0CFFEF7EE007A87EE800A1F4B55
:104B2000B3F8BC200132A3F8BC20D3ED2E7A77EE87
:104B3000807AC3ED2E7AF0EE007AB4EEE70AF1EE59
:104B400010FA06D5F6EE007AB4EEE70AF1EE10FAA6
:104B50000DDCDFED137AB4EEE70AF1EE10FA1AD5A8
:104B6000DFED107AB4EEE70AF1EE10FA13DDD4EDC2
:104B7000007A67EE807A0120C5ED007AD4ED017AE3
:104B800067EE807AC5ED017AD4ED027A27EE800ACD
:104B900085ED020A38BD002038BD00BFB40B0020EF
:104BA00000247449BD37863510B53D4B2DED048B7F
:104BB00093ED018AD3ED009AB0EE480A04460AF05C
:104BC00065FCB0EE409AB0EE480A0AF0F3FCF0EE55
:104BD000408AB0EE690A0AF0EDFCB0EE408AB0EE11
:104BE000690A0AF053FCDFED2F6A2F4894ED004A62
:104BF00080ED309A68EE887AB0EE405AA7EEA65A59
:104C0000E43028EE806A00ED055AB0EE677AF0EEE7
:104C1000457AB0EE485A96EE265AA0EE667A00ED36
:104C2000045AF0EE464AB0EE456A94ED015A00EDA2
:104C3000087A27EE057AE8EE264AA9EE047A69EEAC
:104C4000265AD4ED026A40ED074AA4EEA67A67EE32
:104C5000857A80ED007A94ED007A40ED065AE5EE13
:104C6000877A29EE088AE6EE267A00ED028AC0ED00
:104C7000017AD4ED017A28EE278AD4ED007AF1EE9C
:104C8000688AA8EEA78A29EE000A40ED038AA0EE02
:104C9000268A00ED010A80ED028ABDEC048B10BD6E
:104CA0005013002000000000B40B002008B52DEDCB
:104CB000068BF0EE409AB0EE600AF0EE41AAF0EEFC
:104CC000608A0AF0E3FBB0EE408AB0EE680A0AF0B0
:104CD00071FCB0EE409AB0EE690A0AF06BFCF0EE9F
:104CE000408AB0EE690A0AF0D1FBB0EE40AAB0EEFD
:104CF0006A0A0AF05FFCF0EE409AB0EE6A0A0AF027
:104D0000C5FB1A4B68EE007A69EE286AC3ED007A9B
:104D100069EECA7A29EE0A7AE0EE267AB1EE499A6D
:104D2000C3ED017A68EEA97A83ED069AE0EE077A80
:104D3000C3ED027A68EE297AC3ED037A6AEE007A4F
:104D400020EE680A68EE288A28EE0A8AE9EEA67A3A
:104D5000A9EE870AC3ED078A83ED088ABDEC068BAE
:104D6000C3ED047A83ED050A08BD00BF20000020D2
:104D700001380A4B042804D8DFE800F006080A0CC2
:104D80000E00074A1A607047064AFBE7064AF9E731
:104D9000064AF7E7064AF5E7064AF3E71C00002053
:104DA0004D820008D93C0008D9840008893F0008DA
:104DB000414200085945000837B504461546052903
:104DC0002CD8DFE801F0030717191B1B436B2B607E
:104DD000002021E00DF10602442102F0A1FAD8B929
:104DE000BDF8062053029AB12B60A363012384F817
:104DF000293011E0C36BEAE7036CE8E70DF1060226
:104E0000642102F08DFA38B9BDF806305B02DEE7A6
:104E1000A36B2B6084F8290003B030BD6FF0030052
:104E2000FAE72DE9F04F9FB090F830310C91C02295
:104E300001210446059302F0C8FA0546002840F017
:104E4000E982207401228021204602F0BEFA01226C
:104E5000FF21204602F0B9FA2A462946204602F0F0
:104E6000B4FA94F83A219121204602F0AEFA29468C
:104E70000122204602F0A9FA2A46FF21204602F02C
:104E8000A4FA2A468021204602F09FFA29460122F0
:104E9000204602F09AFA01238DF85C30054600287E
:104EA00040F0B882074644F620689DF85C30DB0786
:104EB00007F101070ED5002D40F00E83474502D1C2
:104EC0006FF00605A6E2294617AA204602F03EFA30
:104ED0000546EAE74745F3D0002D40F09B82204687
:104EE00004F03FFB0546002840F09482032384F839
:104EF00032310C2214AB142194F85C01FEF782FDD0
:104F0000002800F0C1829DF85A209DF85B30B4F86B
:104F1000520194F8311103EB02231FFA83FB9DF831
:104F200056209DF8573003EB02239BB25B029DF89D
:104F3000582000939DF8593003EB02239BB25B028B
:104F40009DF8522006939DF8533003EB02239DF801
:104F500050209BB2B0F57A7F02934FEAE2020ED066
:104F6000257F0BFB00F04FF47A7300F5FA7090FB8D
:104F7000F3F0236A002D40F094801FFA80FB002993
:104F800000F099804FEA8B13DBB209930023ADF850
:104F90004630D3B2049303F00F0301934FEA9B0B07
:104FA000019A4FF2A103D34003F001030B9394F84D
:104FB00028300393002B00F0AC81257F236A25B1B4
:104FC000029A03FB02F580352D0A94F8E020009B3D
:104FD000D4F8DC7008922B4411464FF47A783846A6
:104FE00008FB03FA0A9301F0C5FED4F8E43094F804
:104FF000E81007938146184601F0BCFE089A0A9B08
:105000000AF5004A082A4FEA1A4603F180020CBF4B
:1050100002210321C04B002E63D1C4F840311F464A
:1050200012AA00212046FFF7C7FE129BB6B2002B42
:1050300000F06D81BB422CBF00270127002840F003
:10504000108294F82A90B9F1000F00F0718113AA30
:1050500002212046FFF7B0FE88B90122FF21204639
:1050600002F0B3F958B90DF14602B621204602F01C
:1050700057F920B90246FF21204602F0A6F9BDF8F3
:1050800046506B02139DC4F848311DB1AB4294BF2A
:1050900000250125002800F04C814FF00008C24691
:1050A00065E1029D9BB26B43009D1B129D420CD19A
:1050B000A1B948F6E02BD2B20023049202F00F020D
:1050C000ADF84630019209936AE7009D80B26843CB
:1050D000EB1AB0FBF3F31FFA83FB50E742F2B82B55
:1050E00050E781444FEAC92901FB09F140F277609A
:1050F0004FEA122E01F5FA71B1FBF8F1414301F5C7
:10510000FA710F93B1FBF8F3089303FB0EFE069BB5
:10511000DFF818920E9108FB03F000EA09000EF187
:10512000800EB0FBF6F67D480D925FEA1E2E08BF9A
:105130004FF0010E864228BF06464FF4167000FB62
:1051400006F30C2000FB0EF00A9304F0F5F946007C
:1051500008FB05F0B0F5481F0AEA090A28BF4FF41A
:105160004810AAEB400000F5FA700AF5FA7AB0FB95
:10517000F8F0BAFBF8F80002B0FBF8F868480A9BB0
:105180004FEA0828C8F5803841F25C2500FB0BF097
:10519000B0FBF5F000FB08F000F50040000C00F556
:1051A000803040084043800B4FF4487808FB00F8FB
:1051B00008F5004803F500454FEA184808FB08F8D1
:1051C0002D0C05FB058004F0B7F9079B00041F4474
:1051D0004FF0640E3230B0FBFEF040F6B53EB0FB4F
:1051E000F6F641F288304FF47A790EFB060607F5A1
:1051F000FA7742F210704FF4FA6EB6FBF0F6B7FB96
:10520000FEFEB6F5704F0EF5C81EB7FBF9F7BEFBF4
:10521000F7F028BF4FF4704604F08EF9000200F555
:10522000FA70B0FBF9F0404306FB060004F084F985
:105230000F9B0E9909FB00F79F4228BF1F46B4F849
:105240005401D4F85831C4F8407103FB00F909F156
:105250008009009B4FEA192909FB00F9002B54D063
:105260000D9A304B03EA8223009A03EB5203B3FBFF
:10527000F2F303EB43035B4303F500431B0C0620EF
:105280000335B5FBF0F5C5EBC505B5F5803F37BF78
:105290000A9A254A0332B2FBF0F23FBFC2EBC202C8
:1052A00002F50042120C52434FF4FA6509F1200056
:1052B000B1FBF5F1884442440899B2FBF1F2800950
:1052C0009203FE217F32B2FBF1F203FB02F804F0FD
:1052D00033F94FF47A7A08F5FA78B8FBFAF84FEA1E
:1052E000081808F5FA780646B8FBFAFABAF1000F82
:1052F00004D0B8FBF5F5A944B9FBFAFA504604F01E
:105300001BF9864228BF06468AE6009BB7E71F4680
:1053100094E6039F95E600BFAE878F02666666003F
:105320009A9906000000FCFF0000F0FF0000FFFF5C
:105330004D4694F82B80B8F1000F74D0029B002BDF
:105340006CD0009B4FEA032A029BBAFBF3FA17AA20
:1053500003212046FFF730FD179B002B61D05345FA
:1053600094BF4FF0000A4FF0010A00285CD00026DD
:10537000B646039B002B00F0838007F00107019ADB
:1053800094F8293084F82E70042A7BD0B3FA83F382
:105390005B09B9F1000F08BF0125B8F1000F08BF84
:1053A0004FF0010A05F001050AF0010A84F83050B7
:1053B00084F82F3084F831A004F150050FCD17AFD9
:1053C0000FC795E80700002387E807001893009BA4
:1053D0001A93069B1B93BDF80830ADF870309DF80A
:1053E0002430ADF866608DF874E0ADF864B08DF8E7
:1053F00073300DF15C0EBEE80F0004F150060FC6CD
:1054000097E8070085E80700204602F038F80546CF
:1054100000283CD028461FB0BDE8F08FDDF808A07A
:1054200095E79A46A1E7C2460B9B03BB019B013B54
:10543000022B1FD9019B062B53D0092B51D0049B63
:1054400003F00D03082B18D0012D16D0019B042B5F
:1054500060D0BAF1010F50D0012F51D0BA463D466D
:1054600085E74FF00008C146C24645467FE74FF04A
:10547000FF0E7EE74FF0050E7BE74FF0030E78E757
:1054800001277CE7012384E76FF01305C2E70122BF
:10549000FF21204601F099FF05460028BAD10C9A59
:1054A000B621204601F03CFF05460028B2D1024655
:1054B000FF21204601F089FF05460028AAD1059A60
:1054C0000121204601F081FF05460028A2D19DF868
:1054D000143084F830319DE7474508BF6FF006056A
:1054E00098E74FF0040E039B002B7FF446AF012298
:1054F00094F8293084F82E2048E74FF0020EF2E7A6
:105500005546BE46EFE7012384F82E30039D4FF049
:10551000020E3EE7039B002BF5D04FF0020E2CE766
:1055200008B506220B4690F85C01B02101F036F870
:1055300000280CBF6FF01300002008BD13B502AAAD
:1055400000230C4602F8013D012101F0FFFE78B96D
:105550009DF80730C3F300122270C3F3C002A2709B
:10556000C3F380026270C3F38012DB09E27023711F
:1055700002B010BD2DE9F04786B0037C0B700C46DD
:1055800003AAF821054601F0CBFE064628BB04AA73
:105590000421284601F0B2FE0646F0B9BDF80C2001
:1055A0001AB1049BB3FBF2F3A360A368AB610023C1
:1055B000237304AA2021284601F0B2FE064660B9F2
:1055C000BDF810306BB92A6A22612B7704AA282112
:1055D000284601F0A5FE064640B1304606B0BDE8BB
:1055E000F087DB0023612B620123EEE7BDF810306A
:1055F000C3F30B03B3F5006F4FF0FA0226BFA3F518
:10560000805313FB02F35343636104F1240805F153
:10561000280A04F1180900274246B9B22846FFF7C4
:10562000CBFB06460028D8D101371AF8013B09F810
:10563000013B062F08F10408EED104AA01212846F7
:1056400001F084FE06460028C7D19DF8103085F889
:1056500030311B064ABF012384F83C0084F83C30FB
:1056600094F83C3085F84C304FF4FA6302930023F1
:10567000039340F63633636004A92846FFF75EFFC4
:1056800006460028A9D19DF810302BB99DF811309D
:1056900013B99DF81230CBB102AA0221284603F0BB
:1056A00086FE00283ED19DF810302BB1029B03F2FC
:1056B0004E226368134463609DF81230DBB1029B95
:1056C00003F2B222636803EB420363609DF8133078
:1056D0005BB103AA0321284603F069FE039B03F58F
:1056E0002572636813446360E0B99DF8143063B9B0
:1056F00063686B6171E79DF81130002BE6D0029B67
:1057000003F5257263681344DFE701AA04212846E4
:1057100003F04DFE019B03F226226368134463608D
:105720000028E5D0064658E738B504460D4601F096
:105730007F0204308A2101F048FE84F8605138BDB0
:10574000044A536823B192F90020824200D11847DD
:10575000704700BFA40C0020034B1B68DA79511C72
:10576000D9711344187A7047341E002010B5FFF722
:10577000F3FF84B2FFF7F0FF04EB002080B210BD0E
:10578000064B10B504469868036821461B68984785
:10579000034B1B689A7954409C7110BDA40C0020E7
:1057A000341E002010B50446C0B2FFF7E9FF200AFE
:1057B000BDE81040E4E710B5044680B2FFF7F2FF01
:1057C000200CBDE81040EDE72DE9F34188469DF837
:1057D00024E0184E11461A469DF8203005460C2448
:1057E0000020042807460AD0013004FB006C1CF995
:1057F0000CCCAC45F5D104FB0764208908B100202E
:1058000002E025B1012D11D002B0BDE8F0810A48B7
:10581000CDF800E003F06CFB0028F5D00C2303FB6F
:1058200007660571A6F808807060EDE7CDF800E026
:105830000248EFE7240A00200038014000440040FD
:1058400070B50E490E4A0B7B12680025032B05DD4F
:1058500005B10B73002070BD2346F7E702EBC306CA
:105860005C1CB6883042E4B24FF00105F4D00C73F2
:105870000820022110FB0310104470BDA40C00206E
:10588000581E0020014B00221A73D9E7A40C0020F7
:105890002DE9F0411D4D00240A274FF47A768278D5
:1058A0001FFA82FEA4EB0E031BB2002B2ADDC2F10D
:1058B0006402D2B290F8038003FB03FC08FB0CFCEB
:1058C000C8F164080EEB8E0E12FB02F29CFBF2F2A2
:1058D0004244534393FBF7F303EB4E031BB26B803D
:1058E0000A88B1F802E00A34AEEB020EA4B203FB60
:1058F0000EF3782C93FBF6F3134425F8023FCED138
:10590000BDE8F08108BF0122D4E700BFB00C002041
:1059100030B50C4C002340F6C415072B10D003FB08
:1059200003F2A2F1190142784A4302F6C412017847
:105930005A434A4392FBF5F224F813200133ECE773
:1059400030BD00BFCA0C00200430104B10B533F935
:1059500010200C7840F633039A42A8BF1A46B2F5DD
:10596000617F4FF0190340F28330B8BF4FF461728A
:1059700013FB0404944207DA497813FB01009042B8
:10598000B4BF0020012010BD002010BDFC1200207B
:10599000034B002283F834209A639A871A64704775
:1059A000A40C002070B408B970BCF1E70E4A0023C3
:1059B0000C25114605FB03F4A65C864209D10B4B6E
:1059C000186C50B1224455784278954205DB70BC82
:1059D00070470133102BEDD1F9E7002221441964FF
:1059E0009A879A63F3E700BF1C130108A40C0020F8
:1059F00040000C4A142870B4A8BF1420002302F100
:105A00004401022614255E540233CC18984204F84F
:105A1000015CF8DC1344FF2283F844200F2070BCA3
:105A2000C0E700BFA40C002010B50A490A480A6864
:105A3000846800BF0B689A42F9D1084BD96D4FF4C6
:105A40007A7000FB01F31B1BB3FBF1F300FB023088
:105A500010BD00BF9C14002010E000E0A40C00204A
:105A600038B5044604B938BDFFF7DEFF0546FFF739
:105A7000DBFF401BB0F57A7FF9D3013CF2E72DE95B
:105A800087482D4C06460B27013FFCD04FF01E0BDC
:105A900005254FF0020806F0400906F0200A00E054
:105AA0000025B9F1000F04D0A38A9BB283F4804390
:105AB000A382BAF1000F04D0A38A9BB283F40043FF
:105AC000A38216F002021FBFA38A9BB283F4005385
:105AD000A38258460192FFF7C3FF019AB9F1000F64
:105AE00004D0A38A9BB283F48043A382BAF1000F4F
:105AF00004D0A38A9BB283F40043A38222B1A38A79
:105B00009BB283F40053A3825846FFF7A9FF7DB1EF
